{
  "_format": "hh-sol-artifact-1",
  "contractName": "DAO",
  "sourceName": "contracts/DAO.sol",
  "abi": [
    {
      "anonymous": false,
      "inputs": [
        {
          "indexed": false,
          "internalType": "string",
          "name": "message",
          "type": "string"
        }
      ],
      "name": "ProposalAccepted",
      "type": "event"
    },
    {
      "anonymous": false,
      "inputs": [
        {
          "indexed": true,
          "internalType": "uint256",
          "name": "proposalId",
          "type": "uint256"
        },
        {
          "indexed": false,
          "internalType": "string",
          "name": "desc",
          "type": "string"
        }
      ],
      "name": "ProposalCreated",
      "type": "event"
    },
    {
      "anonymous": false,
      "inputs": [
        {
          "indexed": false,
          "internalType": "string",
          "name": "reject",
          "type": "string"
        }
      ],
      "name": "ProposalRejected",
      "type": "event"
    },
    {
      "anonymous": false,
      "inputs": [
        {
          "indexed": true,
          "internalType": "address",
          "name": "vote",
          "type": "address"
        },
        {
          "indexed": true,
          "internalType": "uint256",
          "name": "proposalId",
          "type": "uint256"
        },
        {
          "indexed": false,
          "internalType": "uint256",
          "name": "tokenAmount",
          "type": "uint256"
        }
      ],
      "name": "VoteCast",
      "type": "event"
    },
    {
      "inputs": [
        {
          "internalType": "address",
          "name": "_member",
          "type": "address"
        }
      ],
      "name": "addMember",
      "outputs": [],
      "stateMutability": "nonpayable",
      "type": "function"
    },
    {
      "inputs": [
        {
          "internalType": "address",
          "name": "",
          "type": "address"
        }
      ],
      "name": "balances",
      "outputs": [
        {
          "internalType": "uint256",
          "name": "",
          "type": "uint256"
        }
      ],
      "stateMutability": "view",
      "type": "function"
    },
    {
      "inputs": [
        {
          "internalType": "string",
          "name": "_desc",
          "type": "string"
        }
      ],
      "name": "createProposal",
      "outputs": [],
      "stateMutability": "nonpayable",
      "type": "function"
    },
    {
      "inputs": [
        {
          "internalType": "uint256",
          "name": "_proposalId",
          "type": "uint256"
        }
      ],
      "name": "executeProposal",
      "outputs": [],
      "stateMutability": "nonpayable",
      "type": "function"
    },
    {
      "inputs": [
        {
          "internalType": "address",
          "name": "",
          "type": "address"
        }
      ],
      "name": "memberInfo",
      "outputs": [
        {
          "internalType": "address",
          "name": "memberAddress",
          "type": "address"
        },
        {
          "internalType": "uint256",
          "name": "memberSince",
          "type": "uint256"
        },
        {
          "internalType": "uint256",
          "name": "tokenBalance",
          "type": "uint256"
        }
      ],
      "stateMutability": "view",
      "type": "function"
    },
    {
      "inputs": [
        {
          "internalType": "uint256",
          "name": "",
          "type": "uint256"
        }
      ],
      "name": "members",
      "outputs": [
        {
          "internalType": "address",
          "name": "",
          "type": "address"
        }
      ],
      "stateMutability": "view",
      "type": "function"
    },
    {
      "inputs": [
        {
          "internalType": "uint256",
          "name": "",
          "type": "uint256"
        }
      ],
      "name": "proposals",
      "outputs": [
        {
          "internalType": "string",
          "name": "desc",
          "type": "string"
        },
        {
          "internalType": "uint256",
          "name": "voteCount",
          "type": "uint256"
        },
        {
          "internalType": "bool",
          "name": "executed",
          "type": "bool"
        }
      ],
      "stateMutability": "view",
      "type": "function"
    },
    {
      "inputs": [
        {
          "internalType": "address",
          "name": "_member",
          "type": "address"
        }
      ],
      "name": "removeMember",
      "outputs": [],
      "stateMutability": "nonpayable",
      "type": "function"
    },
    {
      "inputs": [],
      "name": "totalSupply",
      "outputs": [
        {
          "internalType": "uint256",
          "name": "",
          "type": "uint256"
        }
      ],
      "stateMutability": "view",
      "type": "function"
    },
    {
      "inputs": [
        {
          "internalType": "uint256",
          "name": "_proposalId",
          "type": "uint256"
        },
        {
          "internalType": "uint256",
          "name": "_tokenAmount",
          "type": "uint256"
        }
      ],
      "name": "vote",
      "outputs": [],
      "stateMutability": "nonpayable",
      "type": "function"
    },
    {
      "inputs": [
        {
          "internalType": "address",
          "name": "",
          "type": "address"
        },
        {
          "internalType": "uint256",
          "name": "",
          "type": "uint256"
        }
      ],
      "name": "votes",
      "outputs": [
        {
          "internalType": "bool",
          "name": "",
          "type": "bool"
        }
      ],
      "stateMutability": "view",
      "type": "function"
    }
  ],
  "bytecode": "0x608060405234801561001057600080fd5b50611c17806100206000396000f3fe608060405234801561001057600080fd5b50600436106100a95760003560e01c806349c2a1a61161007157806349c2a1a6146101665780635daf08ca146101825780639f2524ee146101b2578063a313c371146101e2578063b384abef14610214578063ca6d56dc14610230576100a9565b8063013cf08b146100ae5780630b1ca49a146100e05780630d61b519146100fc57806318160ddd1461011857806327e235e314610136575b600080fd5b6100c860048036038101906100c39190610f59565b61024c565b6040516100d793929190611040565b60405180910390f35b6100fa60048036038101906100f591906110dc565b61031b565b005b61011660048036038101906101119190610f59565b610647565b005b6101206107b3565b60405161012d9190611109565b60405180910390f35b610150600480360381019061014b91906110dc565b6107b9565b60405161015d9190611109565b60405180910390f35b610180600480360381019061017b9190611259565b6107d1565b005b61019c60048036038101906101979190610f59565b6108a9565b6040516101a991906112b1565b60405180910390f35b6101cc60048036038101906101c791906112cc565b6108e8565b6040516101d9919061130c565b60405180910390f35b6101fc60048036038101906101f791906110dc565b610917565b60405161020b93929190611327565b60405180910390f35b61022e6004803603810190610229919061135e565b610961565b005b61024a600480360381019061024591906110dc565b610ca9565b005b6003818154811061025c57600080fd5b906000526020600020906003020160009150905080600001805461027f906113cd565b80601f01602080910402602001604051908101604052809291908181526020018280546102ab906113cd565b80156102f85780601f106102cd576101008083540402835291602001916102f8565b820191906000526020600020905b8154815290600101906020018083116102db57829003601f168201915b5050505050908060010154908060020160009054906101000a900460ff16905083565b600073ffffffffffffffffffffffffffffffffffffffff16600160008373ffffffffffffffffffffffffffffffffffffffff1673ffffffffffffffffffffffffffffffffffffffff16815260200190815260200160002060000160009054906101000a900473ffffffffffffffffffffffffffffffffffffffff1673ffffffffffffffffffffffffffffffffffffffff16036103ec576040517f08c379a00000000000000000000000000000000000000000000000000000000081526004016103e39061144a565b60405180910390fd5b6040518060600160405280600073ffffffffffffffffffffffffffffffffffffffff168152602001600081526020016000815250600160008373ffffffffffffffffffffffffffffffffffffffff1673ffffffffffffffffffffffffffffffffffffffff16815260200190815260200160002060008201518160000160006101000a81548173ffffffffffffffffffffffffffffffffffffffff021916908373ffffffffffffffffffffffffffffffffffffffff160217905550602082015181600101556040820151816002015590505060005b600080549050811015610643578173ffffffffffffffffffffffffffffffffffffffff16600082815481106104f8576104f761146a565b5b9060005260206000200160009054906101000a900473ffffffffffffffffffffffffffffffffffffffff1673ffffffffffffffffffffffffffffffffffffffff1603610636576000600160008054905061055291906114c8565b815481106105635761056261146a565b5b9060005260206000200160009054906101000a900473ffffffffffffffffffffffffffffffffffffffff16600082815481106105a2576105a161146a565b5b9060005260206000200160006101000a81548173ffffffffffffffffffffffffffffffffffffffff021916908373ffffffffffffffffffffffffffffffffffffffff16021790555060008054806105fc576105fb6114fc565b5b6001900381819060005260206000200160006101000a81549073ffffffffffffffffffffffffffffffffffffffff02191690559055610643565b80806001019150506104c0565b5050565b600015156003828154811061065f5761065e61146a565b5b906000526020600020906003020160020160009054906101000a900460ff161515146106c0576040517f08c379a00000000000000000000000000000000000000000000000000000000081526004016106b79061159d565b60405180910390fd5b60326064600454600384815481106106db576106da61146a565b5b9060005260206000209060030201600101546106f791906115ec565b610701919061161d565b111561077b5760016003828154811061071d5761071c61146a565b5b906000526020600020906003020160020160006101000a81548160ff0219169083151502179055507f19cf08368c3c86aacb1be12c902a304c3b1d64e4f72e1aa33789a01f68ecab05604051610772906116ab565b60405180910390a15b7f276f61830e554c29810d2d21d6523c691bef4a9634206a55fee98c24e62c9a056040516107a890611717565b60405180910390a150565b60045481565b60056020528060005260406000206000915090505481565b6003604051806060016040528083815260200160008152602001600015158152509080600181540180825580915050600190039060005260206000209060030201600090919091909150600082015181600001908161083091906118e3565b506020820151816001015560408201518160020160006101000a81548160ff0219169083151502179055505050600160038054905061086f91906114c8565b7f9c770c289ab5bf7e57cb1d23c8ceae993aea46eb64847072fd3d78ca60d3e4328260405161089e91906119b5565b60405180910390a250565b600081815481106108b957600080fd5b906000526020600020016000915054906101000a900473ffffffffffffffffffffffffffffffffffffffff1681565b60026020528160005260406000206020528060005260406000206000915091509054906101000a900460ff1681565b60016020528060005260406000206000915090508060000160009054906101000a900473ffffffffffffffffffffffffffffffffffffffff16908060010154908060020154905083565b600073ffffffffffffffffffffffffffffffffffffffff16600160003373ffffffffffffffffffffffffffffffffffffffff1673ffffffffffffffffffffffffffffffffffffffff16815260200190815260200160002060000160009054906101000a900473ffffffffffffffffffffffffffffffffffffffff1673ffffffffffffffffffffffffffffffffffffffff1603610a32576040517f08c379a0000000000000000000000000000000000000000000000000000000008152600401610a2990611a23565b60405180910390fd5b80600560003373ffffffffffffffffffffffffffffffffffffffff1673ffffffffffffffffffffffffffffffffffffffff168152602001908152602001600020541015610ab4576040517f08c379a0000000000000000000000000000000000000000000000000000000008152600401610aab90611a8f565b60405180910390fd5b60001515600260003373ffffffffffffffffffffffffffffffffffffffff1673ffffffffffffffffffffffffffffffffffffffff168152602001908152602001600020600084815260200190815260200160002060009054906101000a900460ff16151514610b58576040517f08c379a0000000000000000000000000000000000000000000000000000000008152600401610b4f90611b21565b60405180910390fd5b6001600260003373ffffffffffffffffffffffffffffffffffffffff1673ffffffffffffffffffffffffffffffffffffffff168152602001908152602001600020600084815260200190815260200160002060006101000a81548160ff02191690831515021790555080600160003373ffffffffffffffffffffffffffffffffffffffff1673ffffffffffffffffffffffffffffffffffffffff1681526020019081526020016000206002016000828254610c1391906114c8565b925050819055508060038381548110610c2f57610c2e61146a565b5b90600052602060002090600302016001016000828254610c4f9190611b41565b92505081905550813373ffffffffffffffffffffffffffffffffffffffff167fb4cfecf70861b7b150d8337780d34fb4cbc2114b5fb1fe51a5c5fca1849f727483604051610c9d9190611109565b60405180910390a35050565b600073ffffffffffffffffffffffffffffffffffffffff16600160008373ffffffffffffffffffffffffffffffffffffffff1673ffffffffffffffffffffffffffffffffffffffff16815260200190815260200160002060000160009054906101000a900473ffffffffffffffffffffffffffffffffffffffff1673ffffffffffffffffffffffffffffffffffffffff1614610d7a576040517f08c379a0000000000000000000000000000000000000000000000000000000008152600401610d7190611bc1565b60405180910390fd5b6040518060600160405280600073ffffffffffffffffffffffffffffffffffffffff1681526020014281526020016064815250600160008373ffffffffffffffffffffffffffffffffffffffff1673ffffffffffffffffffffffffffffffffffffffff16815260200190815260200160002060008201518160000160006101000a81548173ffffffffffffffffffffffffffffffffffffffff021916908373ffffffffffffffffffffffffffffffffffffffff16021790555060208201518160010155604082015181600201559050506000819080600181540180825580915050600190039060005260206000200160009091909190916101000a81548173ffffffffffffffffffffffffffffffffffffffff021916908373ffffffffffffffffffffffffffffffffffffffff1602179055506064600560008373ffffffffffffffffffffffffffffffffffffffff1673ffffffffffffffffffffffffffffffffffffffff16815260200190815260200160002081905550606460046000828254610f059190611b41565b9250508190555050565b6000604051905090565b600080fd5b600080fd5b6000819050919050565b610f3681610f23565b8114610f4157600080fd5b50565b600081359050610f5381610f2d565b92915050565b600060208284031215610f6f57610f6e610f19565b5b6000610f7d84828501610f44565b91505092915050565b600081519050919050565b600082825260208201905092915050565b60005b83811015610fc0578082015181840152602081019050610fa5565b60008484015250505050565b6000601f19601f8301169050919050565b6000610fe882610f86565b610ff28185610f91565b9350611002818560208601610fa2565b61100b81610fcc565b840191505092915050565b61101f81610f23565b82525050565b60008115159050919050565b61103a81611025565b82525050565b6000606082019050818103600083015261105a8186610fdd565b90506110696020830185611016565b6110766040830184611031565b949350505050565b600073ffffffffffffffffffffffffffffffffffffffff82169050919050565b60006110a98261107e565b9050919050565b6110b98161109e565b81146110c457600080fd5b50565b6000813590506110d6816110b0565b92915050565b6000602082840312156110f2576110f1610f19565b5b6000611100848285016110c7565b91505092915050565b600060208201905061111e6000830184611016565b92915050565b600080fd5b600080fd5b7f4e487b7100000000000000000000000000000000000000000000000000000000600052604160045260246000fd5b61116682610fcc565b810181811067ffffffffffffffff821117156111855761118461112e565b5b80604052505050565b6000611198610f0f565b90506111a4828261115d565b919050565b600067ffffffffffffffff8211156111c4576111c361112e565b5b6111cd82610fcc565b9050602081019050919050565b82818337600083830152505050565b60006111fc6111f7846111a9565b61118e565b90508281526020810184848401111561121857611217611129565b5b6112238482856111da565b509392505050565b600082601f8301126112405761123f611124565b5b81356112508482602086016111e9565b91505092915050565b60006020828403121561126f5761126e610f19565b5b600082013567ffffffffffffffff81111561128d5761128c610f1e565b5b6112998482850161122b565b91505092915050565b6112ab8161109e565b82525050565b60006020820190506112c660008301846112a2565b92915050565b600080604083850312156112e3576112e2610f19565b5b60006112f1858286016110c7565b925050602061130285828601610f44565b9150509250929050565b60006020820190506113216000830184611031565b92915050565b600060608201905061133c60008301866112a2565b6113496020830185611016565b6113566040830184611016565b949350505050565b6000806040838503121561137557611374610f19565b5b600061138385828601610f44565b925050602061139485828601610f44565b9150509250929050565b7f4e487b7100000000000000000000000000000000000000000000000000000000600052602260045260246000fd5b600060028204905060018216806113e557607f821691505b6020821081036113f8576113f761139e565b5b50919050565b7f4d656d62657220646f6573206e6f742065786973740000000000000000000000600082015250565b6000611434601583610f91565b915061143f826113fe565b602082019050919050565b6000602082019050818103600083015261146381611427565b9050919050565b7f4e487b7100000000000000000000000000000000000000000000000000000000600052603260045260246000fd5b7f4e487b7100000000000000000000000000000000000000000000000000000000600052601160045260246000fd5b60006114d382610f23565b91506114de83610f23565b92508282039050818111156114f6576114f5611499565b5b92915050565b7f4e487b7100000000000000000000000000000000000000000000000000000000600052603160045260246000fd5b7f50726f706f73616c2068617320616c7265616479206265656e2065786563757460008201527f6564000000000000000000000000000000000000000000000000000000000000602082015250565b6000611587602283610f91565b91506115928261152b565b604082019050919050565b600060208201905081810360008301526115b68161157a565b9050919050565b7f4e487b7100000000000000000000000000000000000000000000000000000000600052601260045260246000fd5b60006115f782610f23565b915061160283610f23565b925082611612576116116115bd565b5b828204905092915050565b600061162882610f23565b915061163383610f23565b925082820261164181610f23565b9150828204841483151761165857611657611499565b5b5092915050565b7f50726f706f73616c20686173206265656e206163636570746564000000000000600082015250565b6000611695601a83610f91565b91506116a08261165f565b602082019050919050565b600060208201905081810360008301526116c481611688565b9050919050565b7f50726f706f73616c20686173206265656e2072656a6563746564000000000000600082015250565b6000611701601a83610f91565b915061170c826116cb565b602082019050919050565b60006020820190508181036000830152611730816116f4565b9050919050565b60008190508160005260206000209050919050565b60006020601f8301049050919050565b600082821b905092915050565b6000600883026117997fffffffffffffffffffffffffffffffffffffffffffffffffffffffffffffffff8261175c565b6117a3868361175c565b95508019841693508086168417925050509392505050565b6000819050919050565b60006117e06117db6117d684610f23565b6117bb565b610f23565b9050919050565b6000819050919050565b6117fa836117c5565b61180e611806826117e7565b848454611769565b825550505050565b600090565b611823611816565b61182e8184846117f1565b505050565b5b818110156118525761184760008261181b565b600181019050611834565b5050565b601f8211156118975761186881611737565b6118718461174c565b81016020851015611880578190505b61189461188c8561174c565b830182611833565b50505b505050565b600082821c905092915050565b60006118ba6000198460080261189c565b1980831691505092915050565b60006118d383836118a9565b9150826002028217905092915050565b6118ec82610f86565b67ffffffffffffffff8111156119055761190461112e565b5b61190f82546113cd565b61191a828285611856565b600060209050601f83116001811461194d576000841561193b578287015190505b61194585826118c7565b8655506119ad565b601f19841661195b86611737565b60005b828110156119835784890151825560018201915060208501945060208101905061195e565b868310156119a0578489015161199c601f8916826118a9565b8355505b6001600288020188555050505b505050505050565b600060208201905081810360008301526119cf8184610fdd565b905092915050565b7f4f6e6c79206d656d626572732063616e20766f74650000000000000000000000600082015250565b6000611a0d601583610f91565b9150611a18826119d7565b602082019050919050565b60006020820190508181036000830152611a3c81611a00565b9050919050565b7f4e6f7420656e6f75676820746f6b656e7320746f20766f746500000000000000600082015250565b6000611a79601983610f91565b9150611a8482611a43565b602082019050919050565b60006020820190508181036000830152611aa881611a6c565b9050919050565b7f596f75206861766520616c726561647920766f74656420666f7220746869732060008201527f70726f706f73616c000000000000000000000000000000000000000000000000602082015250565b6000611b0b602883610f91565b9150611b1682611aaf565b604082019050919050565b60006020820190508181036000830152611b3a81611afe565b9050919050565b6000611b4c82610f23565b9150611b5783610f23565b9250828201905080821115611b6f57611b6e611499565b5b92915050565b7f4d656d62657220616c7265616479206578697374730000000000000000000000600082015250565b6000611bab601583610f91565b9150611bb682611b75565b602082019050919050565b60006020820190508181036000830152611bda81611b9e565b905091905056fea264697066735822122055df5cb5007d1be01e3826b8785b9e377579715a9c5b170d60651acd18a7b6bb64736f6c63430008180033",
  "linkReferences": {},
  "deployedLinkReferences": {}
}